{
  "contractName": "MiLeregistration",
  "abi": [
    {
      "constant": true,
      "inputs": [
        {
          "name": "_rID",
          "type": "uint256"
        }
      ],
      "name": "showRegDataSingle",
      "outputs": [
        {
          "name": "name_",
          "type": "bytes32"
        },
        {
          "name": "loanpoints_",
          "type": "uint256"
        },
        {
          "name": "contactNO_",
          "type": "uint256"
        },
        {
          "name": "emailAdd_",
          "type": "bytes32"
        },
        {
          "name": "acountPublicADD_",
          "type": "bytes32"
        },
        {
          "name": "password_",
          "type": "bytes32"
        }
      ],
      "payable": false,
      "stateMutability": "view",
      "type": "function"
    },
    {
      "constant": false,
      "inputs": [
        {
          "name": "_name",
          "type": "bytes32"
        },
        {
          "name": "_adharNo",
          "type": "uint256"
        },
        {
          "name": "_contactNo",
          "type": "uint256"
        },
        {
          "name": "_altContactNo",
          "type": "uint256"
        },
        {
          "name": "_emailAdd",
          "type": "bytes32"
        },
        {
          "name": "_add",
          "type": "bytes32"
        },
        {
          "name": "_pssword",
          "type": "bytes32"
        },
        {
          "name": "_acountPublicADD",
          "type": "bytes32"
        },
        {
          "name": "_state",
          "type": "bytes32"
        },
        {
          "name": "_district",
          "type": "bytes32"
        },
        {
          "name": "_loanpoints",
          "type": "uint256"
        }
      ],
      "name": "insertReg",
      "outputs": [],
      "payable": false,
      "stateMutability": "nonpayable",
      "type": "function"
    },
    {
      "constant": true,
      "inputs": [
        {
          "name": "_regno",
          "type": "uint256"
        }
      ],
      "name": "showAllLoan2",
      "outputs": [
        {
          "name": "",
          "type": "uint256[]"
        },
        {
          "name": "",
          "type": "bytes32[]"
        },
        {
          "name": "",
          "type": "uint256[]"
        },
        {
          "name": "",
          "type": "uint256[]"
        },
        {
          "name": "",
          "type": "bytes32[]"
        }
      ],
      "payable": false,
      "stateMutability": "view",
      "type": "function"
    },
    {
      "constant": false,
      "inputs": [
        {
          "name": "_regno",
          "type": "uint256"
        },
        {
          "name": "_loanID",
          "type": "uint256"
        },
        {
          "name": "_partial",
          "type": "uint256"
        }
      ],
      "name": "updatepartialloan",
      "outputs": [],
      "payable": false,
      "stateMutability": "nonpayable",
      "type": "function"
    },
    {
      "constant": true,
      "inputs": [],
      "name": "showRegData",
      "outputs": [
        {
          "name": "",
          "type": "bytes32[]"
        },
        {
          "name": "",
          "type": "bytes32[]"
        },
        {
          "name": "",
          "type": "uint256[]"
        },
        {
          "name": "",
          "type": "bytes32[]"
        }
      ],
      "payable": false,
      "stateMutability": "view",
      "type": "function"
    },
    {
      "constant": true,
      "inputs": [
        {
          "name": "_regno",
          "type": "uint256"
        }
      ],
      "name": "showAllLoan1",
      "outputs": [
        {
          "name": "",
          "type": "uint256[]"
        },
        {
          "name": "",
          "type": "uint256[]"
        },
        {
          "name": "",
          "type": "uint256[]"
        },
        {
          "name": "",
          "type": "uint256[]"
        },
        {
          "name": "",
          "type": "uint256[]"
        }
      ],
      "payable": false,
      "stateMutability": "view",
      "type": "function"
    },
    {
      "constant": false,
      "inputs": [
        {
          "name": "_regno",
          "type": "uint256"
        },
        {
          "name": "_friendid",
          "type": "uint256"
        }
      ],
      "name": "insertfriendID",
      "outputs": [],
      "payable": false,
      "stateMutability": "nonpayable",
      "type": "function"
    },
    {
      "constant": true,
      "inputs": [
        {
          "name": "_regno",
          "type": "uint256"
        }
      ],
      "name": "showfriends",
      "outputs": [
        {
          "name": "",
          "type": "uint256[]"
        }
      ],
      "payable": false,
      "stateMutability": "view",
      "type": "function"
    },
    {
      "constant": true,
      "inputs": [
        {
          "name": "_regno",
          "type": "uint256"
        }
      ],
      "name": "showAllLoan3",
      "outputs": [
        {
          "name": "",
          "type": "uint256[]"
        }
      ],
      "payable": false,
      "stateMutability": "view",
      "type": "function"
    },
    {
      "constant": false,
      "inputs": [
        {
          "name": "_name",
          "type": "bytes32"
        },
        {
          "name": "_adharNo",
          "type": "uint256"
        },
        {
          "name": "_contactNo",
          "type": "uint256"
        },
        {
          "name": "_altContactNo",
          "type": "uint256"
        },
        {
          "name": "_emailAdd",
          "type": "bytes32"
        },
        {
          "name": "_add",
          "type": "bytes32"
        },
        {
          "name": "_rID",
          "type": "uint256"
        },
        {
          "name": "_pssword",
          "type": "bytes32"
        },
        {
          "name": "_acountPublicADD",
          "type": "bytes32"
        },
        {
          "name": "_state",
          "type": "bytes32"
        },
        {
          "name": "_district",
          "type": "bytes32"
        },
        {
          "name": "_loanpoints",
          "type": "uint256"
        }
      ],
      "name": "updateReg",
      "outputs": [],
      "payable": false,
      "stateMutability": "nonpayable",
      "type": "function"
    },
    {
      "constant": false,
      "inputs": [
        {
          "name": "_regno",
          "type": "uint256"
        },
        {
          "name": "_loanamount",
          "type": "uint256"
        },
        {
          "name": "_totalreturn",
          "type": "uint256"
        },
        {
          "name": "_noOfDays",
          "type": "uint256"
        },
        {
          "name": "_noOfinstallment",
          "type": "uint256"
        },
        {
          "name": "_primiumPercent",
          "type": "uint256"
        },
        {
          "name": "_remarks",
          "type": "bytes32"
        },
        {
          "name": "_loantakenBY",
          "type": "uint256"
        },
        {
          "name": "_date",
          "type": "bytes32"
        }
      ],
      "name": "insertloan",
      "outputs": [],
      "payable": false,
      "stateMutability": "nonpayable",
      "type": "function"
    },
    {
      "constant": false,
      "inputs": [
        {
          "name": "_regno",
          "type": "uint256"
        },
        {
          "name": "_loanID",
          "type": "uint256"
        },
        {
          "name": "_loanGivenBy",
          "type": "uint256"
        }
      ],
      "name": "updateloanGiven",
      "outputs": [],
      "payable": false,
      "stateMutability": "nonpayable",
      "type": "function"
    },
    {
      "constant": false,
      "inputs": [
        {
          "name": "_regno",
          "type": "uint256"
        },
        {
          "name": "_loanID",
          "type": "uint256"
        },
        {
          "name": "_loanamount",
          "type": "uint256"
        }
      ],
      "name": "updateloanAmount",
      "outputs": [],
      "payable": false,
      "stateMutability": "nonpayable",
      "type": "function"
    },
    {
      "constant": false,
      "inputs": [
        {
          "name": "_rID",
          "type": "uint256"
        },
        {
          "name": "_loanpoints",
          "type": "uint256"
        }
      ],
      "name": "updatepoints",
      "outputs": [],
      "payable": false,
      "stateMutability": "nonpayable",
      "type": "function"
    }
  ],
  "bytecode": "0x60606040526000600155341561001457600080fd5b6119f9806100236000396000f3006060604052600436106100cf576000357c0100000000000000000000000000000000000000000000000000000000900463ffffffff168062d9c78a146100d457806303eeb1e01461014e5780630ba5648f146101e757806313e745531461037f57806337b642dd146103b45780633dfc54fe146104f65780633eda3c7c1461068e57806357e9ff5e146106ba57806361f299e414610732578063676e44b5146107aa578063d32389811461084c578063de97e9f7146108bf578063e079c061146108f4578063e900bd6014610929575b600080fd5b34156100df57600080fd5b6100f56004808035906020019091905050610955565b604051808760001916600019168152602001868152602001858152602001846000191660001916815260200183600019166000191681526020018260001916600019168152602001965050505050505060405180910390f35b341561015957600080fd5b6101e56004808035600019169060200190919080359060200190919080359060200190919080359060200190919080356000191690602001909190803560001916906020019091908035600019169060200190919080356000191690602001909190803560001916906020019091908035600019169060200190919080359060200190919050506109f7565b005b34156101f257600080fd5b6102086004808035906020019091905050610b66565b60405180806020018060200180602001806020018060200186810386528b818151815260200191508051906020019060200280838360005b8381101561025b578082015181840152602081019050610240565b5050505090500186810385528a818151815260200191508051906020019060200280838360005b8381101561029d578082015181840152602081019050610282565b50505050905001868103845289818151815260200191508051906020019060200280838360005b838110156102df5780820151818401526020810190506102c4565b50505050905001868103835288818151815260200191508051906020019060200280838360005b83811015610321578082015181840152602081019050610306565b50505050905001868103825287818151815260200191508051906020019060200280838360005b83811015610363578082015181840152602081019050610348565b505050509050019a505050505050505050505060405180910390f35b341561038a57600080fd5b6103b26004808035906020019091908035906020019091908035906020019091905050610e22565b005b34156103bf57600080fd5b6103c7610e55565b6040518080602001806020018060200180602001858103855289818151815260200191508051906020019060200280838360005b838110156104165780820151818401526020810190506103fb565b50505050905001858103845288818151815260200191508051906020019060200280838360005b8381101561045857808201518184015260208101905061043d565b50505050905001858103835287818151815260200191508051906020019060200280838360005b8381101561049a57808201518184015260208101905061047f565b50505050905001858103825286818151815260200191508051906020019060200280838360005b838110156104dc5780820151818401526020810190506104c1565b505050509050019850505050505050505060405180910390f35b341561050157600080fd5b610517600480803590602001909190505061103a565b60405180806020018060200180602001806020018060200186810386528b818151815260200191508051906020019060200280838360005b8381101561056a57808201518184015260208101905061054f565b5050505090500186810385528a818151815260200191508051906020019060200280838360005b838110156105ac578082015181840152602081019050610591565b50505050905001868103845289818151815260200191508051906020019060200280838360005b838110156105ee5780820151818401526020810190506105d3565b50505050905001868103835288818151815260200191508051906020019060200280838360005b83811015610630578082015181840152602081019050610615565b50505050905001868103825287818151815260200191508051906020019060200280838360005b83811015610672578082015181840152602081019050610657565b505050509050019a505050505050505050505060405180910390f35b341561069957600080fd5b6106b860048080359060200190919080359060200190919050506112e2565b005b34156106c557600080fd5b6106db600480803590602001909190505061134e565b6040518080602001828103825283818151815260200191508051906020019060200280838360005b8381101561071e578082015181840152602081019050610703565b505050509050019250505060405180910390f35b341561073d57600080fd5b6107536004808035906020019091905050611406565b6040518080602001828103825283818151815260200191508051906020019060200280838360005b8381101561079657808201518184015260208101905061077b565b505050509050019250505060405180910390f35b34156107b557600080fd5b61084a6004808035600019169060200190919080359060200190919080359060200190919080359060200190919080356000191690602001909190803560001916906020019091908035906020019091908035600019169060200190919080356000191690602001909190803560001916906020019091908035600019169060200190919080359060200190919050506114be565b005b341561085757600080fd5b6108bd60048080359060200190919080359060200190919080359060200190919080359060200190919080359060200190919080359060200190919080356000191690602001909190803590602001909190803560001916906020019091905050611606565b005b34156108ca57600080fd5b6108f260048080359060200190919080359060200190919080359060200190919050506118f2565b005b34156108ff57600080fd5b6109276004808035906020019091908035906020019091908035906020019091905050611954565b005b341561093457600080fd5b6109536004808035906020019091908035906020019091905050611987565b005b60008060008060008060008088815260200190815260200160002060000154600080898152602001908152602001600020600e01546000808a8152602001908152602001600020600201546000808b8152602001908152602001600020600401546000808c8152602001908152602001600020600701546000808d81526020019081526020016000206006015495509550955095509550955091939550919395565b8a60008060015481526020019081526020016000206000018160001916905550896000806001548152602001908152602001600020600101819055508860008060015481526020019081526020016000206002018190555087600080600154815260200190815260200160002060030181905550866000806001548152602001908152602001600020600401816000191690555085600080600154815260200190815260200160002060050181600019169055508460008060015481526020019081526020016000206006018160001916905550836000806001548152602001908152602001600020600701816000191690555082600080600154815260200190815260200160002060080181600019169055508160008060015481526020019081526020016000206009018160001916905550806000806001548152602001908152602001600020600e01819055506001600081548092919060010191905055505050505050505050505050565b610b6e6119a5565b610b766119b9565b610b7e6119a5565b610b866119a5565b610b8e6119b9565b6000610b986119a5565b610ba06119b9565b610ba86119a5565b610bb06119a5565b610bb86119b9565b60008060008e8152602001908152602001600020600a0154965086604051805910610be05750595b9080825280602002602001820160405250955086604051805910610c015750595b9080825280602002602001820160405250945086604051805910610c225750595b9080825280602002602001820160405250935086604051805910610c435750595b9080825280602002602001820160405250925086604051805910610c645750595b90808252806020026020018201604052509150600090505b86811015610e03576000808e8152602001908152602001600020600b016000828152602001908152602001600020600601548682815181101515610cbc57fe5b90602001906020020181815250506000808e8152602001908152602001600020600b016000828152602001908152602001600020600701548582815181101515610d0257fe5b9060200190602002019060001916908160001916815250506000808e8152602001908152602001600020600b016000828152602001908152602001600020600801548482815181101515610d5257fe5b90602001906020020181815250506000808e8152602001908152602001600020600b016000828152602001908152602001600020600901548382815181101515610d9857fe5b90602001906020020181815250506000808e8152602001908152602001600020600b016000828152602001908152602001600020600a01548282815181101515610dde57fe5b9060200190602002019060001916908160001916815250508080600101915050610c7c565b85858585859b509b509b509b509b505050505050505091939590929450565b80600080858152602001908152602001600020600b016000848152602001908152602001600020600b0181905550505050565b610e5d6119b9565b610e656119b9565b610e6d6119a5565b610e756119b9565b6000610e7f6119b9565b610e876119b9565b610e8f6119a5565b610e976119b9565b6000600154955085604051805910610eac5750595b9080825280602002602001820160405250945085604051805910610ecd5750595b9080825280602002602001820160405250935085604051805910610eee5750595b9080825280602002602001820160405250925085604051805910610f0f5750595b90808252806020026020018201604052509150600090505b8581101561102257600080828152602001908152602001600020600001548582815181101515610f5357fe5b906020019060200201906000191690816000191681525050600080828152602001908152602001600020600601548482815181101515610f8f57fe5b906020019060200201906000191690816000191681525050600080828152602001908152602001600020600e01548382815181101515610fcb57fe5b9060200190602002018181525050600080828152602001908152602001600020600901548282815181101515610ffd57fe5b9060200190602002019060001916908160001916815250508080600101915050610f27565b84848484995099509950995050505050505090919293565b6110426119a5565b61104a6119a5565b6110526119a5565b61105a6119a5565b6110626119a5565b600061106c6119a5565b6110746119a5565b61107c6119a5565b6110846119a5565b61108c6119a5565b60008060008e8152602001908152602001600020600a01549650866040518059106110b45750595b90808252806020026020018201604052509550866040518059106110d55750595b90808252806020026020018201604052509450866040518059106110f65750595b90808252806020026020018201604052509350866040518059106111175750595b90808252806020026020018201604052509250866040518059106111385750595b90808252806020026020018201604052509150600090505b868110156112c3576000808e8152602001908152602001600020600b01600082815260200190815260200160002060010154868281518110151561119057fe5b90602001906020020181815250506000808e8152602001908152602001600020600b0160008281526020019081526020016000206002015485828151811015156111d657fe5b90602001906020020181815250506000808e8152602001908152602001600020600b01600082815260200190815260200160002060030154848281518110151561121c57fe5b90602001906020020181815250506000808e8152602001908152602001600020600b01600082815260200190815260200160002060040154838281518110151561126257fe5b90602001906020020181815250506000808e8152602001908152602001600020600b0160008281526020019081526020016000206005015482828151811015156112a857fe5b90602001906020020181815250508080600101915050611150565b85858585859b509b509b509b509b505050505050505091939590929450565b806000808481526020019081526020016000206010016000806000868152602001908152602001600020600f0154815260200190815260200160002060000181905550600080838152602001908152602001600020600f01600081548092919060010191905055505050565b6113566119a5565b60006113606119a5565b6000806000868152602001908152602001600020600f01549250826040518059106113885750595b90808252806020026020018201604052509150600090505b828110156113fb5760008086815260200190815260200160002060100160008281526020019081526020016000206000015482828151811015156113e057fe5b906020019060200201818152505080806001019150506113a0565b819350505050919050565b61140e6119a5565b60006114186119a5565b6000806000868152602001908152602001600020600a01549250826040518059106114405750595b90808252806020026020018201604052509150600090505b828110156114b357600080868152602001908152602001600020600b016000828152602001908152602001600020600b0154828281518110151561149857fe5b90602001906020020181815250508080600101915050611458565b819350505050919050565b8b60008088815260200190815260200160002060000181600019169055508a600080888152602001908152602001600020600101819055508960008088815260200190815260200160002060020181905550886000808881526020019081526020016000206003018190555087600080888152602001908152602001600020600401816000191690555086600080888152602001908152602001600020600501816000191690555084600080888152602001908152602001600020600601816000191690555083600080888152602001908152602001600020600701816000191690555082600080888152602001908152602001600020600801816000191690555081600080888152602001908152602001600020600901816000191690555080600080888152602001908152602001600020600e0181905550505050505050505050505050565b6000808a8152602001908152602001600020600a01546000808b8152602001908152602001600020600b0160008060008d8152602001908152602001600020600a0154815260200190815260200160002060000181905550876000808b8152602001908152602001600020600b0160008060008d8152602001908152602001600020600a0154815260200190815260200160002060010181905550866000808b8152602001908152602001600020600b0160008060008d8152602001908152602001600020600a0154815260200190815260200160002060020181905550856000808b8152602001908152602001600020600b0160008060008d8152602001908152602001600020600a0154815260200190815260200160002060030181905550846000808b8152602001908152602001600020600b0160008060008d8152602001908152602001600020600a0154815260200190815260200160002060040181905550836000808b8152602001908152602001600020600b0160008060008d8152602001908152602001600020600a0154815260200190815260200160002060050181905550826000808b8152602001908152602001600020600b0160008060008d8152602001908152602001600020600a015481526020019081526020016000206007018160001916905550816000808b8152602001908152602001600020600b0160008060008d8152602001908152602001600020600a0154815260200190815260200160002060090181905550806000808b8152602001908152602001600020600b0160008060008d8152602001908152602001600020600a01548152602001908152602001600020600a01816000191690555060008060008b8152602001908152602001600020600b0160008060008d8152602001908152602001600020600a01548152602001908152602001600020600601819055506000808a8152602001908152602001600020600a0160008154809291906001019190505550505050505050505050565b80600080858152602001908152602001600020600b016000848152602001908152602001600020600801819055506001600080858152602001908152602001600020600b01600084815260200190815260200160002060060181905550505050565b80600080858152602001908152602001600020600b01600084815260200190815260200160002060010181905550505050565b80600080848152602001908152602001600020600e01819055505050565b602060405190810160405280600081525090565b6020604051908101604052806000815250905600a165627a7a72305820212b12f8f9bb29a0ac3d5afc229e2a9d35f05f71c0a91801dc113ebc046463b50029",
  "source": "pragma solidity ^0.4.17;\r\n\r\ncontract MiLeregistration {\r\n    mapping (uint => structReg) stReg; \r\n    uint _regID = 0;\r\n\r\n    /**registration contract */\r\n    struct structReg {\r\n        bytes32 name;\r\n        uint adharNo;\r\n        uint contactNO;\r\n        uint altContactNo;\r\n        bytes32 emailAdd;\r\n        bytes32 addressUser; \r\n        bytes32 password;\r\n        bytes32 acountPublicADD;\r\n        bytes32 state;\r\n        bytes32 district;\r\n        uint _loancount;\r\n        mapping (uint => loanStruct) loanstr;\r\n        uint _balanceCount;\r\n        mapping (uint => balanceStruct) balstr;\r\n        uint loanpoints;\r\n        uint _friendCount;\r\n        mapping (uint => friendStruct) friendS;\r\n\r\n    }\r\n\r\n    struct friendStruct {\r\n        uint friendId;\r\n    }\r\n/**0 for comlete 1 for incomplete */\r\n    struct loanStruct {\r\n        uint id;\r\n        uint loanamount;\r\n        uint totalreturn;\r\n        uint noOfDays;\r\n        uint noOfinstallment;\r\n        uint primiumPercent;\r\n        uint loanstatus;\r\n        bytes32 remark;\r\n        uint loanGivenBy;\r\n        uint loantakenBY;\r\n        bytes32 date;\r\n        uint partial;\r\n    }\r\n\r\n    struct balanceStruct {\r\n        uint balance;\r\n    }\r\n    /** insert loaddata */\r\n\r\n    function insertfriendID(uint _regno, uint _friendid) public{\r\n        stReg[_regno].friendS[stReg[_regno]._friendCount].friendId = _friendid;\r\n        stReg[_regno]._friendCount++;\r\n    }\r\n\r\n    function showfriends (uint _regno) public constant returns (uint[]){\r\n        uint _totalfcount = stReg[_regno]._friendCount;\r\n        uint[] memory _fid = new uint[](_totalfcount);\r\n        for (uint i = 0; i < _totalfcount; i++){\r\n            _fid[i] = stReg[_regno].friendS[i].friendId;\r\n        }\r\n        return(_fid);\r\n\r\n\r\n\r\n    }\r\n\r\n    function insertloan (\r\n        uint _regno,\r\n        uint _loanamount,\r\n        uint _totalreturn,\r\n        uint _noOfDays,\r\n        uint _noOfinstallment,\r\n        uint _primiumPercent,\r\n        bytes32 _remarks,\r\n        uint _loantakenBY,\r\n        bytes32 _date\r\n        \r\n    ) public{\r\n        stReg[_regno].loanstr[stReg[_regno]._loancount].id = stReg[_regno]._loancount;\r\n        stReg[_regno].loanstr[stReg[_regno]._loancount].loanamount = _loanamount;\r\n        stReg[_regno].loanstr[stReg[_regno]._loancount].totalreturn = _totalreturn;\r\n        stReg[_regno].loanstr[stReg[_regno]._loancount].noOfDays = _noOfDays;\r\n        stReg[_regno].loanstr[stReg[_regno]._loancount].noOfinstallment = _noOfinstallment;\r\n        stReg[_regno].loanstr[stReg[_regno]._loancount].primiumPercent = _primiumPercent;\r\n        stReg[_regno].loanstr[stReg[_regno]._loancount].remark = _remarks;\r\n        stReg[_regno].loanstr[stReg[_regno]._loancount].loantakenBY = _loantakenBY;\r\n        stReg[_regno].loanstr[stReg[_regno]._loancount].date = _date;\r\n        stReg[_regno].loanstr[stReg[_regno]._loancount].loanstatus = 0;\r\n        stReg[_regno]._loancount++;\r\n    }\r\n\r\n    function updateloanAmount(\r\n        uint _regno,\r\n        uint _loanID,\r\n        uint _loanamount \r\n    )public{\r\n        stReg[_regno].loanstr[_loanID].loanamount = _loanamount;\r\n    }\r\n\r\n    function updatepartialloan(\r\n        uint _regno,\r\n        uint _loanID,\r\n        uint _partial \r\n    )public{\r\n        stReg[_regno].loanstr[_loanID].partial = _partial;\r\n    }\r\n\r\n\r\n    function updateloanGiven(\r\n        uint _regno,\r\n        uint _loanID,\r\n        uint _loanGivenBy\r\n\r\n    )public{\r\n        stReg[_regno].loanstr[_loanID].loanGivenBy = _loanGivenBy;\r\n        stReg[_regno].loanstr[_loanID].loanstatus = 1;\r\n    }\r\n\r\n    /**show loan */\r\n    function showAllLoan1(uint _regno) public constant returns(\r\n        uint[],\r\n        uint[],\r\n        uint[],\r\n        uint[],\r\n        uint[] \r\n    ){\r\n        uint _totalloancount = stReg[_regno]._loancount;\r\n        uint[] memory _loanamount = new uint[](_totalloancount);\r\n        uint[] memory _totalreturn = new uint[](_totalloancount);\r\n        uint[] memory _noOfDays = new uint[](_totalloancount);\r\n        uint[] memory _noOfinstallment = new uint[](_totalloancount);\r\n        uint[] memory _primiumPercent = new uint[](_totalloancount);\r\n\r\n        for (uint i = 0; i < _totalloancount; i++){\r\n            _loanamount[i] = stReg[_regno].loanstr[i].loanamount;\r\n            _totalreturn[i] = stReg[_regno].loanstr[i].totalreturn;\r\n            _noOfDays[i] = stReg[_regno].loanstr[i].noOfDays;\r\n            _noOfinstallment[i] = stReg[_regno].loanstr[i].noOfinstallment;\r\n            _primiumPercent[i] = stReg[_regno].loanstr[i].primiumPercent;\r\n        }\r\n        return(_loanamount, _totalreturn, _noOfDays, _noOfinstallment, _primiumPercent);\r\n    }\r\n\r\n    function showAllLoan2(uint _regno) public constant returns(\r\n        uint[],\r\n        bytes32[],\r\n        uint[],\r\n        uint[],\r\n        bytes32[]\r\n          \r\n    ){\r\n        uint _totalloancount = stReg[_regno]._loancount;\r\n       \r\n        uint[] memory _loanstatus = new uint[](_totalloancount);\r\n        bytes32[] memory _remark = new bytes32[](_totalloancount);\r\n        uint[] memory _loanGivenBy = new uint[](_totalloancount);\r\n        uint[] memory _loantakenBY = new uint[](_totalloancount);\r\n        bytes32[] memory _date = new bytes32[](_totalloancount);\r\n        \r\n\r\n        for (uint i = 0; i < _totalloancount; i++){\r\n            _loanstatus[i] = stReg[_regno].loanstr[i].loanstatus;\r\n            _remark[i] = stReg[_regno].loanstr[i].remark;\r\n            _loanGivenBy[i] = stReg[_regno].loanstr[i].loanGivenBy;\r\n            _loantakenBY[i] = stReg[_regno].loanstr[i].loantakenBY;\r\n            _date[i] = stReg[_regno].loanstr[i].date;\r\n            \r\n        }\r\n        return(_loanstatus, _remark, _loanGivenBy, _loantakenBY, _date);\r\n    }\r\n\r\n    function showAllLoan3(uint _regno) public constant returns(\r\n          uint[]  \r\n    ){\r\n        uint _totalloancount = stReg[_regno]._loancount;\r\n       \r\n        \r\n        uint[] memory _partial = new uint[](_totalloancount);\r\n\r\n        for (uint i = 0; i < _totalloancount; i++){\r\n            \r\n            _partial[i] = stReg[_regno].loanstr[i].partial;\r\n        }\r\n        return(_partial);\r\n    }\r\n\r\n\r\n\r\n    /**insert data in registration contract */\r\n    function insertReg(\r\n        bytes32 _name, \r\n        uint _adharNo, \r\n        uint _contactNo, \r\n        uint _altContactNo, \r\n        bytes32 _emailAdd,\r\n        bytes32 _add, \r\n        bytes32 _pssword, \r\n        bytes32 _acountPublicADD, \r\n        bytes32 _state, \r\n        bytes32 _district,\r\n        uint _loanpoints\r\n        \r\n       \r\n        )public\r\n        {\r\n            stReg[_regID].name = _name;\r\n            stReg[_regID].adharNo = _adharNo;\r\n            stReg[_regID].contactNO = _contactNo;\r\n            stReg[_regID].altContactNo = _altContactNo;\r\n            stReg[_regID].emailAdd = _emailAdd;\r\n            stReg[_regID].addressUser = _add;\r\n            stReg[_regID].password = _pssword;\r\n            stReg[_regID].acountPublicADD = _acountPublicADD;\r\n            stReg[_regID].state = _state;\r\n            stReg[_regID].district = _district;\r\n            stReg[_regID].loanpoints = _loanpoints;\r\n          \r\n            _regID++;\r\n        }\r\n\r\n   \r\n\r\n    /**update registration data */\r\n    function updateReg (\r\n        bytes32 _name, \r\n        uint _adharNo, \r\n        uint _contactNo, \r\n        uint _altContactNo, \r\n        bytes32 _emailAdd, \r\n        bytes32 _add, \r\n        uint _rID,\r\n        bytes32 _pssword,\r\n        bytes32 _acountPublicADD, \r\n        bytes32 _state, \r\n        bytes32 _district,\r\n        uint _loanpoints\r\n\r\n        ) public {\r\n        stReg[_rID].name = _name;\r\n        stReg[_rID].adharNo = _adharNo;\r\n        stReg[_rID].contactNO = _contactNo;\r\n        stReg[_rID].altContactNo = _altContactNo;\r\n        stReg[_rID].emailAdd = _emailAdd;\r\n        stReg[_rID].addressUser = _add;\r\n        stReg[_rID].password = _pssword;\r\n        stReg[_rID].acountPublicADD = _acountPublicADD;\r\n        stReg[_rID].state = _state;\r\n        stReg[_rID].district = _district;\r\n        stReg[_rID].loanpoints = _loanpoints;\r\n    }\r\n\r\n    /**update points of borrow  */\r\n    function updatepoints (uint _rID, uint _loanpoints) public {\r\n        stReg[_rID].loanpoints = _loanpoints;\r\n    }\r\n    \r\n    /**show regdata single user */\r\n    function showRegDataSingle (uint _rID) public constant returns(\r\n        bytes32 name_,\r\n        uint loanpoints_,\r\n        uint contactNO_,\r\n     \r\n        bytes32 emailAdd_,\r\n        bytes32 acountPublicADD_,\r\n        bytes32 password_\r\n    ) {\r\n        return(\r\n            stReg[_rID].name, \r\n            stReg[_rID].loanpoints, \r\n            stReg[_rID].contactNO, \r\n            stReg[_rID].emailAdd, \r\n            stReg[_rID].acountPublicADD,\r\n            stReg[_rID].password\r\n            );\r\n    }\r\n\r\n    /**show all regdata  */\r\n    function showRegData () public constant returns(\r\n        bytes32[],\r\n        bytes32[],\r\n        uint[],\r\n        bytes32[]\r\n    ){\r\n        uint totaldata = _regID;\r\n        bytes32[] memory name_ = new bytes32[](totaldata);\r\n        //\r\n        //uint[] memory contactNO_ = new uint[](totaldata);\r\n        //uint[] memory altContactNo_ = new uint[](totaldata);\r\n        //bytes32[] memory emailAdd_ = new bytes32[](totaldata);\r\n        //\r\n        bytes32[] memory password_ = new bytes32[](totaldata);\r\n        uint[] memory loanpoints_ = new uint[](totaldata);\r\n        bytes32[] memory district_ = new bytes32[](totaldata);\r\n\r\n        for (uint i = 0; i < totaldata; i++){\r\n            name_[i] = stReg[i].name;\r\n          //  adharNo_[i] = stReg[i].adharNo;\r\n          //  contactNO_[i] = stReg[i].contactNO;\r\n          //  altContactNo_[i] = stReg[i].altContactNo;\r\n          //  emailAdd_[i] = stReg[i].emailAdd;\r\n          //  addressUser_[i] = stReg[i].addressUser;\r\n            password_[i] = stReg[i].password;\r\n            loanpoints_[i] = stReg[i].loanpoints;\r\n            district_[i] = stReg[i].district;\r\n        }\r\n\r\n        //return(name_, adharNo_, contactNO_, altContactNo_, emailAdd_, addressUser_, password_ );\r\n        return(name_, password_, loanpoints_, district_);\r\n    }\r\n\r\n}\r\n\r\n\r\n",
  "sourcePath": "E:\\blockchain_sultans\\jio_mi-le_contracts\\contracts\\MiLeregistration.sol",
  "compiler": {
    "name": "solc",
    "version": "0.4.18+commit.9cf6e910.Emscripten.clang"
  },
  "schemaVersion": "1.0.1",
  "updatedAt": "2019-03-03T05:42:13.010Z"
}